:020000040800F2
:10000000B804002001010008D9110008B11000084F
:10001000D511000875010008ED110008000000006E
:10002000000000000000000000000000E1110008D6
:100030007901000800000000DD110008E51100084A
:100040001B0100081B0100081B0100081B01000820
:100050001B0100081B0100081B0100081B01000810
:100060001B0100081B0100081B0100081B01000800
:100070001B0100081B0100081B0100081B010008F0
:100080001B0100081B0100081B0100081B010008E0
:100090001B0100081B0100081B0100081B010008D0
:1000A0001B0100081B0100081B0100081B010008C0
:1000B0001B0100081B0100081B0100081B010008B0
:1000C0001B0100081B0100081B0100081B010008A0
:1000D0001B0100081B0100081B0100081B01000890
:1000E0001B0100081B0100081B010008DFF80CD0F1
:1000F00000F02EF80048004711120008B804002054
:100100000648804706480047FEE7FEE7FEE7FEE7B1
:10011000FEE7FEE7FEE7FEE7FEE7FEE7E91100087F
:10012000ED00000830B50B460146002020220124D6
:1001300009E021FA02F59D4205D303FA02F5491BB5
:1001400004FA02F52844151EA2F10102F1DC30BDCB
:10015000064C074D06E0E06840F0010394E8070014
:1001600098471034AC42F6D3FFF7C4FF6814000878
:1001700088140008FEE7000070470000EFF31080CD
:1001800072B600BFFEE70000B0B5044600F026F9E5
:10019000054640F20400C2F200000078611C18BF5E
:1001A000044400BF00F01AF9401BA042FAD3B0BDCE
:1001B0002DE9F04F82B041F20042C4F201020E6814
:1001C0000423904208BF0323002E009300F0F68022
:1001D00040F20C4E4FF6FF7CC4F2010E00220124C7
:1001E000C1F2100C4FF0000A4FF0000943E000BFCD
:1001F000012502F00C040F27A7402BEA070705FA98
:1002000004F43C4343F82640D1F804B040F20045E2
:10021000C4F201055FEACB332B6854BF23EA08031D
:1002200043EA08032B606B685FEA8B3454BF23EA10
:10023000080343EA08036B605FEACB24AB6854BF52
:1002400023EA080343EA08035FEA8B24AB60DEF885
:1002500000304FF0010454BF23EA080343EA0803C7
:10026000CEF800300E680AF1010A36FA0AF302F1FC
:10027000040200F0A38004FA0AF816EA080FF1D08D
:100280004B68634512DC122B56D8DFE803F0350BC0
:100290004549555555555555555555555555554D32
:1002A000510000BFD1F80C9046E000BF4FF6FF7739
:1002B000C1F22107BB420FDC0027C1F21107BB428C
:1002C0001AD00027C1F21207BB4215D00027C1F295
:1002D0002107BB4210D02FE00027C1F22207BB420A
:1002E0000AD00027C1F23107BB4205D00027C1F276
:1002F0003207BB4220D100BF8B684BB1012B14BF2A
:10030000C0F81480C0F810804FF0080914E000BF56
:100310004FF0040910E000BFCB6803F108090BE0BF
:100320004FF0000908E000BFCB6803F1040903E0C7
:10033000CB6803F10C0900BF13460546BAF1080F5C
:1003400024BF203B04352E680F279F40BE4309FA87
:1003500003F333432B60CB79DB067FF583AF41F2A8
:100360001804C4F2020423684FEA9A0643F001031A
:100370002360236840F6000403F001030193019B0E
:1003800040F20043C4F20103A3F57E7353F826B094
:10039000C4F20104A0420FD040F60044C4F20104AC
:1003A000A0423FF425AF41F20004C4F20104009DD5
:1003B000A04208BF02251CE700251AE702B0BDE8ED
:1003C000F08F00008068084018BF012070470000CF
:1003D000002A08BF090401617047000040F2B00024
:1003E000C2F200000068704770B5B8B3044690F8D8
:1003F0003D0028B9002084F83C00204600F0B0F809
:10040000242084F83D002068016821F0010101608A
:10041000016841F400410160016821F4004101607C
:1004200000F054FA48F28041C0F21E0140F6001379
:10043000D4F804E088424FF00001C0F23D0348F2D6
:10044000A16C4FF0000238BF01219842C0F2010CAC
:1004500038BF0122E64538BF0A460AB1012070BD07
:100460004DF68361C4F21B31A0FB01122168950C8B
:100470004B684FF4967623F03F0343EA924375436B
:1004800044F6D3564B60C1F262060B6AA5FB0656D2
:10049000B50923F03F03E64538BF950C6A1C1A43A3
:1004A0000A62CA6948F2A0664CF6FF73C0F2010600
:1004B000B64522EA03020BD801384FEA4E03B0FBDF
:1004C000F3F001306FF31F30042898BF04201EE0C2
:1004D000A368013863B119230EFB03F3B0FBF3F0FB
:1004E00001306FF31F3078B100F5804008E000BFA5
:1004F0000EEB4E03B0FBF3F001306FF31F3028B169
:1005000000F5004003E000BF012000E0012010439F
:10051000C8610868D4E9072320F0C00010431843DD
:100520000860886848F2FF3204F10C0690434CCE14
:1005300018431043A5698860C86820F0FF00304365
:100540002843C860086840F00100086000202021AE
:10055000206484F83D10206384F83E0070BD0000E4
:1005600010B586B045F200410068C4F200010022D7
:100570008842049202D006B010BD00BF41F21804B8
:10058000C4F20204206840F008002060206800F0F7
:10059000080001900198C0200290122003900320CF
:1005A000059001F5384002A9FFF702FE606840F4AB
:1005B00000106060606800F400100190019806B0BF
:1005C00010BD000040F2040040F2B001C2F2000091
:1005D000C2F2000100780A68104408607047000009
:1005E00080B542F20000C4F20200016841F010013F
:1005F0000160032000F07AF80F2000F005F800F009
:1006000027F8002080BD000070B540F20406C2F259
:10061000000640F20C013278C2F200014FF47A7306
:100620000968B3FBF2F20446B1FBF2F1084600F0B0
:100630004FFB0F2C4FF0010508D838B94FF0FF30B1
:1006400021460022002500F025F87460284670BD80
:1006500082B041F21800C4F202000168022241F0A7
:1006600001010160016801F00101019101994168F6
:1006700041F080514160406800F080500090009847
:100680000420C4F20100016862F31A61016002B043
:100690007047000010B54EF60C5CCEF2000CDCF892
:1006A0000030C3F3022E8EF00704042C28BF04246C
:1006B000BEF103034FF0FF3E0EFA04F438BF0023EF
:1006C000A14399400EFA03F39A43114300F00F023D
:1006D000043A624409010C3200F16043B0F1FF3F7B
:1006E000C8BF03F56442117010BD00004EF60C51F6
:1006F000CEF200010A684FF6FF031A4060F30A22A7
:1007000042F0806040F0FD70086070472DE9F043D2
:1007100081B0002800F0858042F20008C4F202088F
:100720000446D8F800000D4600F0070088420CD2BD
:10073000D8F8000020F007002843C8F80000D8F8D7
:10074000000000F00700A8426BD1206841F20409C4
:100750008107C4F2020917D5410705D5D9F8001061
:1007600041F4E061C9F80010010705D5D9F800107F
:1007700041F46051C9F80010D9F80010A26821F0C6
:10078000F0011143C9F80010C00741D1D8F80000AA
:1007900000F00700A8420CD9D8F8000020F00700AC
:1007A0002843C8F80000D8F8000000F00700A8426D
:1007B00037D12068410707D5D9F80010E26821F445
:1007C000E0611143C9F80010000708D5D9F800000E
:1007D000216920F4605040EAC100C9F80000D9F84E
:1007E000002002F00C00082841F20020C0F27A003C
:1007F00050D141F25643C2F38341C0F60003595C25
:10080000D2033BD440F60010C0F23D00484341E023
:10081000606802280AD001282AD159F8041C8903EB
:1008200008D4012001B0BDE8F08300BF59F8041CD2
:100830008901F6D5D9F8001021F003010843C9F861
:100840000000FFF7CBFD064641F28837D9F80000DB
:10085000616800F00C00B0EB810F97D0FFF7BEFD90
:10086000801BB842F2D9032001B0BDE8F08300BF7D
:1008700059F8041C8907D4D5DCE700BFD9F800205B
:1008800041F23C43C2F34042C0F600039A5C484345
:10089000B0FBF2F0D9F8001041F23E42C1F303116F
:1008A000C0F60002515C40F20C0220FA01F140F265
:1008B0000800C2F200000068C2F200021160FFF7F7
:1008C000A3FE002001B0BDE8F083000040F20C0060
:1008D00041F20401C2F20000C4F20201006809689A
:1008E00041F24E42C1F30221C0F60002515CC84001
:1008F0007047000040F20C0041F20401C2F2000017
:10090000C4F202010068096841F24E42C1F3C221FB
:10091000C0F60002515CC840704700002DE9F0416C
:1009200082B0002868D00446007841F20006C00773
:10093000C4F2020625D0706800F00C0004281BD019
:10094000706800F00C00082802D17068C00313D44E
:100950006068002800F06881B0F5A02F00F07C816D
:10096000B0F5803F00F07C81306820F4803030604A
:10097000306820F4802076E13068800301D560681B
:10098000D0B32078800718D5706810F00C0F07D00E
:10099000706800F00C0008286ED17068C0036BD43A
:1009A0003068800702D52069012825D13068616947
:1009B00020F0F80040EAC1003060207800071FD422
:1009C0002078400732D4E56995B1706800F00C00DA
:1009D000082840F08F80012D0ED07068216A00F445
:1009E00080328A4208D1616A00F47010884203D1D3
:1009F000002002B0BDE8F081012002B0BDE8F08126
:100A0000A069002862D00020C4F242200121C0F871
:100A10008014FFF7E3FC0546706A800700F18C80C4
:100A2000FFF7DCFC401B0228F6D92AE1F06910F040
:100A3000805808D1F06940F08050F061F06900F012
:100A400080500090009847F20007C4F20007386811
:100A5000C00529D4386840F480703860FFF7BEFCC8
:100A6000054600BF3868C0051ED4FFF7B7FC401B21
:100A70006428F7D905E100BF2069002840F2000092
:100A8000C4F2422000F0828001210160FFF7A6FC41
:100A9000054600BF306880073FF588AFFFF79EFC32
:100AA000401B0228F6D9ECE0E068002800F08080C6
:100AB000052800F09780012800F09880306A20F027
:100AC00001003062306A20F0040092E00020C4F29D
:100AD00042200021C0F88014FFF780FC054600BFCB
:100AE000706A80077FF56CAFFFF778FC401B022827
:100AF000F6D9C6E00027C4F2422700203866FFF787
:100B00006DFC022D05460BD13068800140F1BE809E
:100B1000FFF764FC401B02284FF00300F4D968E79C
:100B2000306880017FF564AFFFF758FC401B022856
:100B30004FF00300F4D95CE740F20C00C2F2000071
:100B4000006844F6D351C1F26201A0FB0101480ADA
:100B5000019000BF00BF0198411E002801913FF4A1
:100B60002FAF00BF0198411E002801913FF428AF2C
:100B700000BF0198411E002801913FF421AF00BF42
:100B80000198411E00280191E4D119E7002101607C
:100B9000FFF724FC054600BF306880077FF50DAFE6
:100BA000FFF71CFC401B02284FF00300F4D920E79C
:100BB000306A20F001003062306A20F004003062B8
:100BC000FFF70CFC054641F2883700BF306A80070A
:100BD00020D5FFF703FC401BB8424FF00300F5D9C6
:100BE00007E700BF306A40F004003062306A40F02E
:100BF00001003062FFF7F2FB054641F2883700BF83
:100C0000306A800706D4FFF7E9FB401BB842F7D9EA
:100C100037E000BFB8F1000F7FF4D5AEF06920F0E7
:100C20008050F061CFE600BF306820F48030306043
:100C3000306820F480203060FFF7D0FB054600BF0D
:100C4000306880037FF59DAEFFF7C8FB401B64282A
:100C50004FF00300F4D9CCE6306840F480203060D7
:100C6000306840F480303060FFF7B8FB054600BFC5
:100C7000306880033FF585AEFFF7B0FB401B64286A
:100C8000F6D9032002B0BDE8F08100BF206AB0F5BC
:100C9000803F05D17168A26821F400311143716071
:100CA0007168626A21F47411104308437060012076
:100CB0003866FFF793FB0446306880013FF598AE35
:100CC000FFF78CFB001B02284FF00300F4D990E6DD
:100CD000411E0020B0EB116F1CBF012070474EF287
:100CE0001002CEF2000251604EF62351CEF2000106
:100CF000F0230B700721906011607047002804BF3B
:100D00000120704710B5044690F83D0028B9002036
:100D100084F83C00204600F05FF8242084F83D0071
:100D20002068D4E90212C36823F40053C360036946
:100D300023F440531A430261D4E904231143C268E7
:100D4000194341F20C639A431143C1604169A2699E
:100D500021F44071114343F60002C4F201029042B3
:100D6000416103D0FFF7B2FD02E000BFFFF7C2FD13
:100D70006268192148439100B0FBF1F048F21F511D
:100D8000C5F2EB11A0FB01235A096FF0630302FBCC
:100D90000300322303EB0010A0FB0101F02303EA60
:100DA0005113206803EB0212C1F343111144816017
:100DB000016921F490410161416921F02A014161F9
:100DC000C16841F40051C16000202021206484F8F2
:100DD0003D1084F83E1010BD70B586B040F600049A
:100DE000C4F20104006804F54051002688420496CC
:100DF00002D006B070BD00BF41F21800C4F202007C
:100E0000016802AD41F480410160016801F4804154
:100E100001910199016841F00401016000682946CF
:100E200000F00400019001984FF40070029002203D
:100E30000390032005902046FFF7BAF94FF4806035
:100E4000CDE90206204629460496FFF7B1F906B01F
:100E500070BD00002DE9F04381B0044690F83D00DC
:100E600020280DD10F4600294FF0010000F092809C
:100E70001646002A00F08E8094F83C00012803D129
:100E8000022001B0BDE8F083012084F83C004FF05F
:100E9000000921201D46C4F8409084F83D00FFF76A
:100EA0009DFAA684E684A1688046B1F5805F25D1CD
:100EB000206900281CBF38464F463E46074684F846
:100EC0003C90E08C00B3681C20D0002D66D12068D7
:100ED0000BE000BF36F8021B00276FF35F21416073
:100EE000E18C0139E184E18C81B30168090675D593
:100EF000002FEFD017F8011BF1E700BF002684F8A0
:100F00003C90E08C0028DED120681FE0206802E0E1
:100F10000168090609D40168090606D401680906B2
:100F20005CBF01685FEA0161F2D51FB117F8011BD0
:100F300005E000BF36F8021B00276FF35F21416018
:100F4000E18C0139E184E18C0029E4D10168490692
:100F50001CD4002D42D0691C0ED10168490615D45D
:100F6000016849065CBF01685FEA41610ED401680F
:100F70004906F2D50AE000BFFFF730FAA0EB0801FE
:100F80002068A9422AD800684006F5D5202084F8B8
:100F90003D00002001B0BDE8F08300BF206800BF25
:100FA0000168090608D4FFF719FAA0EB08012068C8
:100FB000A942F5D912E000BF17B117F8011B04E0F0
:100FC00036F8021B00276FF35F214160E18C013985
:100FD000E184E18C0029E3D1B8E700BFC16821F4C6
:100FE000D071C160416921F001014161202084F884
:100FF0003D0084F83E00002084F83C00032001B04E
:10100000BDE8F08380B500F011F840F21001C2F2A3
:1010100000010A68131A38BF831A48F21F50C5F23C
:10102000EB10A3FB00025009486080BD70B540F68C
:1010300000440A20C4F20104FFF7A6F820464FF44A
:1010400000610022FFF7C4F920464FF48061FFF7EA
:10105000B9F90028F8D10026002500BF20464FF43A
:1010600000610122FFF7B4F920464FF480616D0062
:10107000FFF7A8F9002820464FF400614FF0000266
:1010800018BF0135FFF7A4F9172E06F10106E5D3C5
:1010900020464FF400610122FFF79AF920464FF4F1
:1010A0000061002285F40005FFF792F9284670BD23
:1010B000FEE700002DE9F04186B0002641F218005D
:1010C0000596C4F20200016840F6004441F01001A8
:1010D00001600168C4F2010401F01001019101995D
:1010E0000168012241F02001016001684FF40068AD
:1010F00001F02001019101990168012741F00801E7
:101100000160016801F0080101910199016841F055
:101110000401016000684FF4006100F004000190D8
:1011200001982046FFF754F94FF4806002A902AD00
:10113000C1C120462946FFF73BF803200590204611
:101140002946CDE902870496FFF732F806B0BDE8DC
:10115000F081000080B540F2180045F20041C2F273
:101160000000C4F2000148F2A06200234FF4804C5A
:10117000C0F2010280E80E00C0E9033CC0E905337B
:10118000C0E90733FFF730F9002808BF80BDBDE88C
:101190008040FEF7F3BF000080B540F26C0043F6DC
:1011A0000001C2F20000C4F2010100234FF00C0C58
:1011B0004FF4E13280E80E00C0E90333C0E905C313
:1011C000C361FFF79BFD002808BF80BDBDE88040DC
:1011D000FEF7D4BFFEE70000FEE700007047000006
:1011E00070470000FFF7EEB970470000FEE700000F
:1011F00080B582B0019040F26C00C2F2000001A9FB
:1012000001224FF6FF73FFF725FE019802B080BD63
:1012100090B0FFF7E5F900240120CDE90B44CDE9BA
:10122000094406900A904FF4E0104FF480310225F3
:101230000F9006A8CDE90714CDE90D51FFF76EFB1D
:1012400020B1EFF3108072B6FEE700BF0F20CDE9AA
:1012500001054FF48060CDE9040401A80221039444
:10126000FFF754FA20B1EFF3108072B6FEE700BF2B
:10127000FFF720FFFFF76EFFFFF78EFFFFF7D6FEA9
:1012800040F2100140F21405C2F20001C2F2000562
:1012900004A40860FFF7B6FE01462860204600F06F
:1012A00003F8F7E7256400000FB4054B10B503A958
:1012B000044A029800F018F810BC5DF814FB000016
:1012C000F11100080000002002E008C8121F08C148
:1012D000002AFAD170477047002001E001C1121FB7
:1012E000002AFBD1704700002DE9FF4F89B09B46D3
:1012F0000446002506E025280BD05A460B99904756
:10130000641C6D1C20780028F5D10DB02846BDE87E
:10131000F08F0027B8460122474900E0074314F840
:10132000013F203B02FA03F00842F7D120782E2833
:1013300019D114F8010F47F004072A280ED06FF0D6
:101340002F022078A0F1300109290CD808EB880180
:1013500002EB410100EB0108641CF2E70A98641CEF
:1013600050F8048B0A9020780028CED0642808D04A
:10137000692806D075281ED05A460B9990476D1CD7
:1013800058E00A994FF00A0901C90A91002802DAC7
:1013900040422D2102E0390504D52B218DF8201083
:1013A000012103E0F90704D02021F7E78A4608AEBF
:1013B0000DE00021FAE70A994FF00A0901C90A91E4
:1013C000F7E74946FEF7AEFE303106F8011D00286A
:1013D000F7D1ADEB060000F12009780701D44FF0FA
:1013E0000108C84502DDA8EB090000E000208046A6
:1013F000002706E008A85A46C05D0B9990476D1C6F
:101400007F1C5745F6DB04E030205A460B99904785
:101410006D1CB8F10001A8F10108F5DC05E016F833
:10142000010B5A460B9990476D1CB9F10001A9F1C7
:101430000109F4DC641C65E70928010001020000D1
:101440000000000000000102030406070809000074
:1014500000000102030402030405060708090A0B41
:101460000C0D0E0F10100000881400080000002062
:1014700010000000C8120008981400081000002096
:10148000A8040000D81200080000000001000000BD
:08149000100000000024F4002C
:04000005080000ED02
:00000001FF
