:020000040800F2
:10000000D804002001010008411700088D120008E3
:100010003D17000875010008291D000800000000B8
:100020000000000000000000000000001D1D00088E
:100030007901000800000000191D0008211D0008BA
:100040001B0100081B0100081B0100081B01000820
:100050001B0100081B0100081B0100081B01000810
:100060001B0100081B0100081B0100081B01000800
:100070001B0100081B0100081B0100081B010008F0
:100080001B0100081B0100081B0100081B010008E0
:100090001B0100081B0100081B0100081B010008D0
:1000A0001B0100081B0100081B0100081B010008C0
:1000B0001B0100081B0100081B0100081B010008B0
:1000C0001B0100081B0100081B0100081B010008A0
:1000D0001B0100081B0100081B0100081B01000890
:1000E0001B0100081B0100081B010008DFF80CD0F1
:1000F00000F02EF800480047AD1F0008D80400208B
:100100000648804706480047FEE7FEE7FEE7FEE7B1
:10011000FEE7FEE7FEE7FEE7FEE7FEE7251D000837
:10012000ED00000830B50B460146002020220124D6
:1001300009E021FA02F59D4205D303FA02F5491BB5
:1001400004FA02F52844151EA2F10102F1DC30BDCB
:10015000064C074D06E0E06840F0010394E8070014
:1001600098471034AC42F6D3FFF7C4FFDC440008D4
:10017000FC440008FEE7000070470000EFF3108029
:1001800072B600BFFEE70000B0B5044600F026F9E5
:10019000054640F20400C2F200000078611C18BF5E
:1001A000044400BF00F01AF9401BA042FAD3B0BDCE
:1001B0002DE9F04F82B041F20042C4F201020E6814
:1001C0000423904208BF0323002E009300F0F68022
:1001D00040F20C4E4FF6FF7CC4F2010E00220124C7
:1001E000C1F2100C4FF0000A4FF0000943E000BFCD
:1001F000012502F00C040F27A7402BEA070705FA98
:1002000004F43C4343F82640D1F804B040F20045E2
:10021000C4F201055FEACB332B6854BF23EA08031D
:1002200043EA08032B606B685FEA8B3454BF23EA10
:10023000080343EA08036B605FEACB24AB6854BF52
:1002400023EA080343EA08035FEA8B24AB60DEF885
:1002500000304FF0010454BF23EA080343EA0803C7
:10026000CEF800300E680AF1010A36FA0AF302F1FC
:10027000040200F0A38004FA0AF816EA080FF1D08D
:100280004B68634512DC122B56D8DFE803F0350BC0
:100290004549555555555555555555555555554D32
:1002A000510000BFD1F80C9046E000BF4FF6FF7739
:1002B000C1F22107BB420FDC0027C1F21107BB428C
:1002C0001AD00027C1F21207BB4215D00027C1F295
:1002D0002107BB4210D02FE00027C1F22207BB420A
:1002E0000AD00027C1F23107BB4205D00027C1F276
:1002F0003207BB4220D100BF8B684BB1012B14BF2A
:10030000C0F81480C0F810804FF0080914E000BF56
:100310004FF0040910E000BFCB6803F108090BE0BF
:100320004FF0000908E000BFCB6803F1040903E0C7
:10033000CB6803F10C0900BF13460546BAF1080F5C
:1003400024BF203B04352E680F279F40BE4309FA87
:1003500003F333432B60CB79DB067FF583AF41F2A8
:100360001804C4F2020423684FEA9A0643F001031A
:100370002360236840F6000403F001030193019B0E
:1003800040F20043C4F20103A3F57E7353F826B094
:10039000C4F20104A0420FD040F60044C4F20104AC
:1003A000A0423FF425AF41F20004C4F20104009DD5
:1003B000A04208BF02251CE700251AE702B0BDE8ED
:1003C000F08F00008068084018BF012070470000CF
:1003D000002A08BF090401617047000040F2D40000
:1003E000C2F200000068704770B5B8B3044690F8D8
:1003F0003D0028B9002084F83C00204600F09EF91A
:10040000242084F83D002068016821F0010101608A
:10041000016841F400410160016821F4004101607C
:1004200000F042FB48F28041C0F21E0140F600138A
:10043000D4F804E088424FF00001C0F23D0348F2D6
:10044000A16C4FF0000238BF01219842C0F2010CAC
:1004500038BF0122E64538BF0A460AB1012070BD07
:100460004DF68361C4F21B31A0FB01122168950C8B
:100470004B684FF4967623F03F0343EA924375436B
:1004800044F6D3564B60C1F262060B6AA5FB0656D2
:10049000B50923F03F03E64538BF950C6A1C1A43A3
:1004A0000A62CA6948F2A0664CF6FF73C0F2010600
:1004B000B64522EA03020BD801384FEA4E03B0FBDF
:1004C000F3F001306FF31F30042898BF04201EE0C2
:1004D000A368013863B119230EFB03F3B0FBF3F0FB
:1004E00001306FF31F3078B100F5804008E000BFA5
:1004F0000EEB4E03B0FBF3F001306FF31F3028B169
:1005000000F5004003E000BF012000E0012010439F
:10051000C8610868D4E9072320F0C00010431843DD
:100520000860886848F2FF3204F10C0690434CCE14
:1005300018431043A5698860C86820F0FF00304365
:100540002843C860086840F00100086000202021AE
:10055000206484F83D10206384F83E0070BD0000E4
:100560002DE9F04383B0994616460F460446FFF73F
:1005700035FF94F83D1020291CD10546206881697B
:10058000890713D5FFF72AFF401B1928F6D9002049
:100590002021206384F83D1084F83E00216C41F056
:1005A0002001216484F83C0004E000BF94F83C1072
:1005B000012903D1022003B0BDE8F083012284F8B1
:1005C0003C200368DDE90B180A9ADB0703D10368B6
:1005D00043F001030360036823F4006303602120F8
:1005E00084F83D00402084F83E00002020646262D0
:1005F0006185608D394620850020CFF6FF70E0626E
:10060000204632464B46CDF80080019500F040FE72
:1006100020B1012003B0BDE8F08300BF208D002889
:1006200050D0206808F10106014651F8142F120637
:100630002CD49EB1B8F1000F5AD000BF0868400515
:100640005ED4FFF7CBFE401B404556D820680146DC
:1006500051F8142F1206F1D518E000BF0A685205B0
:100660004ED40A68120611D40A68520548D40A68A2
:1006700012060BD40A68520542D40A68120605D441
:100680000A6852053CD40A681206E7D5626A114628
:1006900011F8013B0361238D6162591E2185678D2D
:1006A000013F678547697F070AD50F0408D0517855
:1006B0000161911C6162991E2185628D013A6285FA
:1006C0000904B1D1204641462A4600F01BFF38BB41
:1006D0002068016841F400710160202084F83D0029
:1006E000002084F83E0084F83C0003B0BDE8F083AD
:1006F0000868400504D4FFF771FE202004E000BF25
:100700006FF480600860042000212022216384F8B7
:100710003D2084F83E10226C1043206484F83C1085
:10072000206C04287FF475AF2068016841F40071E3
:100730000160012003B0BDE8F083000010B586B071
:1007400045F200410068C4F2000100228842049290
:1007500002D006B010BD00BF41F21804C4F202047A
:10076000206840F008002060206800F00800019038
:100770000198C0200290122003900320059001F5FB
:10078000384002A9FFF714FD606840F40010606073
:10079000606800F400100190019806B010BD0000E0
:1007A00040F2040040F2D401C2F20000C2F20001A3
:1007B00000780A68104408607047000080B542F273
:1007C0000000C4F20200016841F010010160032042
:1007D00000F07AF80F2000F005F800F027F800206C
:1007E00080BD000070B540F20406C2F2000640F27F
:1007F00028013278C2F200014FF47A730968B3FB22
:10080000F2F20446B1FBF2F1084600F04FFB0F2C68
:100810004FF0010508D838B94FF0FF3021460022CB
:10082000002500F025F87460284670BD82B041F2C2
:100830001800C4F202000168022241F001010160C7
:10084000016801F0010101910199416841F0805175
:100850004160406800F08050009000980420C4F28D
:100860000100016862F31A61016002B07047000084
:1008700010B54EF60C5CCEF2000CDCF80030C3F381
:10088000022E8EF00704042C28BF0424BEF10303BB
:100890004FF0FF3E0EFA04F438BF0023A143994005
:1008A0000EFA03F39A43114300F00F02043A624434
:1008B00009010C3200F16043B0F1FF3FC8BF03F5FE
:1008C0006442117010BD00004EF60C51CEF20001D2
:1008D0000A684FF6FF031A4060F30A2242F0806074
:1008E00040F0FD70086070472DE9F04381B00028AA
:1008F00000F0858042F20008C4F202080446D8F8ED
:1009000000000D4600F0070088420CD2D8F8000025
:1009100020F007002843C8F80000D8F8000000F0D5
:100920000700A8426BD1206841F204098107C4F294
:10093000020917D5410705D5D9F8001041F4E06147
:10094000C9F80010010705D5D9F8001041F460512D
:10095000C9F80010D9F80010A26821F0F001114385
:10096000C9F80010C00741D1D8F8000000F0070016
:10097000A8420CD9D8F8000020F007002843C8F896
:100980000000D8F8000000F00700A84237D1206826
:10099000410707D5D9F80010E26821F4E06111435E
:1009A000C9F80010000708D5D9F80000216920F423
:1009B000605040EAC100C9F80000D9F8002002F0F8
:1009C0000C00082841F20020C0F27A0050D144F215
:1009D000C843C2F38341C0F60003595CD2033BD441
:1009E00040F60010C0F23D00484341E06068022834
:1009F0000AD001282AD159F8041C890308D40120FF
:100A000001B0BDE8F08300BF59F8041C8901F6D598
:100A1000D9F8001021F003010843C9F80000FFF7DE
:100A2000DDFC064641F28837D9F80000616800F025
:100A30000C00B0EB810F97D0FFF7D0FC801BB842C1
:100A4000F2D9032001B0BDE8F08300BF59F8041CBF
:100A50008907D4D5DCE700BFD9F8002042F2BC6397
:100A6000C2F34042C0F600039A5C4843B0FBF2F088
:100A7000D9F8001042F2BE62C1F30311C0F60002C1
:100A8000515C40F2280220FA01F140F20800C2F263
:100A900000000068C2F200021160FFF7A3FE002010
:100AA00001B0BDE8F083000040F2280041F20401EB
:100AB000C2F20000C4F202010068096842F2CE628C
:100AC000C1F30221C0F60002515CC840704700002B
:100AD00040F2280041F20401C2F20000C4F2020117
:100AE0000068096842F2CE62C1F3C221C0F600027A
:100AF000515CC840704700002DE9F04182B00028E9
:100B000068D00446007841F20006C007C4F202062D
:100B100025D0706800F00C0004281BD0706800F02D
:100B20000C00082802D17068C00313D46068002844
:100B300000F06881B0F5A02F00F07C81B0F5803F17
:100B400000F07C81306820F480303060306820F420
:100B5000802076E13068800301D56068D0B32078CA
:100B6000800718D5706810F00C0F07D0706800F07F
:100B70000C0008286ED17068C0036BD43068800701
:100B800002D52069012825D13068616920F0F8007C
:100B900040EAC1003060207800071FD42078400769
:100BA00032D4E56995B1706800F00C00082840F077
:100BB0008F80012D0ED07068216A00F480328A4245
:100BC00008D1616A00F47010884203D1002002B09D
:100BD000BDE8F081012002B0BDE8F081A0690028E5
:100BE00062D00020C4F242200121C0F88014FFF737
:100BF000F5FB0546706A800700F18C80FFF7EEFB7D
:100C0000401B0228F6D92AE1F06910F0805808D17B
:100C1000F06940F08050F061F06900F08050009081
:100C2000009847F20007C4F200073868C00529D4CD
:100C3000386840F480703860FFF7D0FB054600BF8D
:100C40003868C0051ED4FFF7C9FB401B6428F7D9DC
:100C500005E100BF2069002840F20000C4F24220F4
:100C600000F0828001210160FFF7B8FB054600BF5C
:100C7000306880073FF588AFFFF7B0FB401B0228C4
:100C8000F6D9ECE0E068002800F08080052800F04C
:100C90009780012800F09880306A20F001003062CF
:100CA000306A20F0040092E00020C4F242200021CB
:100CB000C0F88014FFF792FB054600BF706A8007FA
:100CC0007FF56CAFFFF78AFB401B0228F6D9C6E020
:100CD0000027C4F2422700203866FFF77FFB022D71
:100CE00005460BD13068800140F1BE80FFF776FBEE
:100CF000401B02284FF00300F4D968E730688001F8
:100D00007FF564AFFFF76AFB401B02284FF003003A
:100D1000F4D95CE740F22800C2F20000006844F613
:100D2000D351C1F26201A0FB0101480A019000BF4A
:100D300000BF0198411E002801913FF42FAF00BF72
:100D40000198411E002801913FF428AF00BF01988F
:100D5000411E002801913FF421AF00BF0198411EC0
:100D600000280191E4D119E700210160FFF736FB6B
:100D7000054600BF306880077FF50DAFFFF72EFBFB
:100D8000401B02284FF00300F4D920E7306A20F01E
:100D900001003062306A20F004003062FFF71EFB71
:100DA000054641F2883700BF306A800720D5FFF73B
:100DB00015FB401BB8424FF00300F5D907E700BF11
:100DC000306A40F004003062306A40F00100306266
:100DD000FFF704FB054641F2883700BF306A800701
:100DE00006D4FFF7FBFA401BB842F7D937E000BF43
:100DF000B8F1000F7FF4D5AEF06920F08050F061BB
:100E0000CFE600BF306820F480303060306820F4D6
:100E100080203060FFF7E2FA054600BF30688003AB
:100E20007FF59DAEFFF7DAFA401B64284FF0030010
:100E3000F4D9CCE6306840F480203060306840F46B
:100E400080303060FFF7CAFA054600BF3068800383
:100E50003FF585AEFFF7C2FA401B6428F6D90320A0
:100E600002B0BDE8F08100BF206AB0F5803F05D137
:100E70007168A26821F40031114371607168626A7F
:100E800021F4741110430843706001203866FFF7A5
:100E9000A5FA0446306880013FF598AEFFF79EFA48
:100EA000001B02284FF00300F4D990E6411E0020F9
:100EB000B0EB116F1CBF012070474EF21002CEF252
:100EC000000251604EF62351CEF20001F0230B7068
:100ED0000721906011607047002804BF012070470F
:100EE00010B5044690F83D0028B9002084F83C0075
:100EF000204600F05FF8242084F83D002068D4E903
:100F00000212C36823F40053C360036923F44053FF
:100F10001A430261D4E904231143C268194341F220
:100F20000C639A431143C1604169A26921F4407185
:100F3000114343F60002C4F201029042416103D022
:100F4000FFF7B2FD02E000BFFFF7C2FD62681921A2
:100F500048439100B0FBF1F048F21F51C5F2EB118C
:100F6000A0FB01235A096FF0630302FB0300322345
:100F700003EB0010A0FB0101F02303EA51132068EA
:100F800003EB0212C1F3431111448160016921F4A2
:100F900090410161416921F02A014161C16841F438
:100FA0000051C16000202021206484F83D1084F8A5
:100FB0003E1010BD70B586B040F60004C4F20104C6
:100FC000006804F5405100268842049602D006B01D
:100FD00070BD00BF41F21800C4F20200016802AD0A
:100FE00041F480410160016801F48041019101995F
:100FF000016841F0040101600068294600F0040026
:10100000019001984FF40070029002200390032099
:1010100005902046FFF7CCF84FF48060CDE902063A
:10102000204629460496FFF7C3F806B070BD0000BD
:101030002DE9F04381B0044690F83D0020280DD101
:101040000F4600294FF0010000F092801646002A5A
:1010500000F08E8094F83C00012803D1022001B0FA
:10106000BDE8F083012084F83C004FF00009212006
:101070001D46C4F8409084F83D00FFF7AFF9A68400
:10108000E684A1688046B1F5805F25D120690028FB
:101090001CBF38464F463E46074684F83C90E08CDD
:1010A00000B3681C20D0002D66D120680BE000BF83
:1010B00036F8021B00276FF35F214160E18C013994
:1010C000E184E18C81B30168090675D5002FEFD06A
:1010D00017F8011BF1E700BF002684F83C90E08C74
:1010E0000028DED120681FE0206802E001680906C0
:1010F00009D40168090606D4016809065CBF0168C5
:101100005FEA0161F2D51FB117F8011B05E000BFCE
:1011100036F8021B00276FF35F214160E18C013933
:10112000E184E18C0029E4D1016849061CD4002D3A
:1011300042D0691C0ED10168490615D401684906E0
:101140005CBF01685FEA41610ED401684906F2D5CF
:101150000AE000BFFFF742F9A0EB08012068A942AE
:101160002AD800684006F5D5202084F83D000020EC
:1011700001B0BDE8F08300BF206800BF0168090628
:1011800008D4FFF72BF9A0EB08012068A942F5D994
:1011900012E000BF17B117F8011B04E036F8021B7C
:1011A00000276FF35F214160E18C0139E184E18C1C
:1011B0000029E3D1B8E700BFC16821F4D071C16054
:1011C000416921F001014161202084F83D0084F84B
:1011D0003E00002084F83C00032001B0BDE8F0830D
:1011E00080B500F011F840F23001C2F200010A6847
:1011F000131A38BF831A48F21F50C5F2EB10A3FB35
:1012000000025009486080BD70B540F600440A20D5
:10121000C4F20104FEF7B8FF20464FF4006100223B
:10122000FFF7D6F820464FF48061FFF7CBF800288F
:10123000F8D10026002500BF20464FF400610122AE
:10124000FFF7C6F820464FF480616D00FFF7BAF84B
:10125000002820464FF400614FF0000218BF01350E
:10126000FFF7B6F8172E06F10106E5D320464FF436
:1012700000610122FFF7ACF820464FF40061002224
:1012800085F40005FFF7A4F8284670BDFEE70000CE
:101290002DE9F04381B00446006890460268099D3C
:1012A00042F4807202604269089E9946D2070F4656
:1012B0001DD1711C11D0002E00F0D280FFF78EF8E6
:1012C000401BB04200F2CE8020684169C907F5D0CA
:1012D0000DE000BF4169C90709D14169C90706D1BD
:1012E0004169C90704BF41695FEAC171F2D007F0E3
:1012F000FE0101614169890738D44169721C01F41A
:10130000806111D049BB002E00F0E880FFF766F83D
:10131000401BB04200F2E48020684169890725D46F
:1013200041694905F2D518E0B9B9416989071DD469
:101330004169490511D44169890717D441694905B3
:101340000BD44169890711D44169490505D4416924
:1013500089070BD441694905E7D5016841F400715B
:1013600001606FF4806141610420BAE000210091C6
:10137000014651F8142F00924A680092009A0A68B8
:1013800012061ED4002E00F08580721C4DD10A6812
:10139000520500F187800A68120612D40A685205C5
:1013A00000F180800A6812060BD40A68520579D4CD
:1013B0000A68120605D40A68520573D40A68120630
:1013C000E5D5B9F1010F43D04FEA1821016101467B
:1013D00051F8142F12063BD4002E5BD0721C29D179
:1013E0000A6852055ED40A68120631D40A685205AA
:1013F00058D40A6812062BD40A68520552D40A68D7
:10140000120625D40A6852054CD40A681206E7D59C
:101410001EE000BFFEF7E2FF401BB0423FD820684D
:10142000014651F8142F1206CBD408684005F1D5B7
:1014300038E000BF0868400534D4FEF7CFFF401BFA
:10144000B0422CD82068014651F8142F1206F1D56D
:101450005FFA88F10161002001B0BDE8F08300BFB0
:10146000FEF7BCFF00202021206384F83D1084F8A3
:101470003E00216C41F020012164216884F83C0089
:101480000868C00544BF4FF400702064032001B019
:10149000BDE8F0830868400504D4FEF79FFF2020D4
:1014A00004E000BF6FF48060086004200021202267
:1014B000216384F83D2084F83E10226C10432064A0
:1014C00084F83C10206C042817D12068016841F48E
:1014D00000710160012001B0BDE8F083FEF77EFFDE
:1014E000202000212022216384F83D2084F83E1032
:1014F000226C1043206484F83C10012001B0BDE848
:10150000F083000070B50368044653F8140F4007D9
:1015100037D40E46F1B1701C24D100BF18684005C5
:1015200032D4186840072CD4186840052CD41868A9
:10153000400726D41868400526D41868400720D4F0
:101540001868400520D4186840074FF0000048BFD5
:1015500070BDE3E71868400516D4FEF73FFF202072
:1015600016E000BF154600BF186840050CD4FEF712
:1015700035FF401BB042F2D8236853F8140F4007E0
:10158000F2D5002070BD00BF6FF4806018600420A9
:1015900000212022216384F83D2084F83E10226C33
:1015A00010432064012084F83C1070BD2DE9F04701
:1015B00086B04FF0000841F21800CDF81480C4F254
:1015C0000200016840F6004441F01001016001682A
:1015D000C4F2010401F01001019101990168A4F520
:1015E000806641F0200101600168002201F02001C5
:1015F0000191019901684FF0F00A41F00401016086
:10160000016801F0040101910199016841F00801AC
:1016100001600068F02100F0080001900198304658
:10162000FEF7D6FE20464FF4016101220127FEF7A6
:10163000CFFE2046282100224FF02809FEF7C8FEE1
:101640000F2002ADCDE90208304629460497FEF787
:10165000AFFDCDE902A74FF0020A30462946CDF88A
:101660001080CDF814A0FEF7A3FD4FF48060CDE903
:101670000208204629460497FEF79AFD4FF40060C1
:1016800002A981E881010326204629460596FEF736
:101690008FFD20462946CDE90297CDE904A6FEF745
:1016A00087FD1020CDE9020720462946CDE90476C2
:1016B000FEF77EFD06B0BDE8F087000080B540F281
:1016C000380045F20041C2F20000C4F2000148F2C5
:1016D000A06200234FF4804CC0F2010280E80E00AB
:1016E000C0E9033CC0E90533C0E90733FEF77CFEDF
:1016F000002808BF80BDBDE88040FEF73FBD000068
:1017000080B540F28C0043F60001C2F20000C4F242
:10171000010100234FF00C0C4FF4165280E80E002C
:10172000C0E90333C0E905C3C361FFF7D5FB002857
:1017300008BF80BDBDE88040FEF720BDFEE7000089
:10174000FEE700002DE9F04F85B040F23804002597
:101750004FF480760127C2F200040DF1120B0DF157
:1017600013084FF0000900BF09F1B0008DF8100018
:1017700004A8CDE900072046782100220123029623
:10178000FEF7EEFE0DF11100CDE9000720467821AD
:10179000002201238DF811500296FEF7E1FE102081
:1017A0008DF812002046782100220123CDE900B7F0
:1017B0000296FEF7D5FE4FF0000A00BF20467821C2
:1017C000402201238DF81350CDE900870296FEF7E1
:1017D000C7FE0AF101004FFA80FABAF1FF3FEDDCD3
:1017E000B9F1070F09F10109BED305B0BDE8F08FCB
:1017F00080B5C820FEF7C8FCBDE8804000F096BA6E
:101800002DE9F04F89B0064640B20D460028A2F1FE
:10181000200744BF02350026102BA5F1500040F0F0
:101820003F8140F238048DF818004FF0010906A8F6
:10183000C2F200044FF48078CDE9000920467821F7
:1018400000220123CDF80880FEF78AFE300910300F
:1018500005908DF819000DF11900CDE90009204619
:10186000782100220123CDF80880FEF779FE06F0EA
:101870000F0004908DF81A000DF11A00CDE900094F
:101880002046782100220123CDF80880FEF768FE6B
:10189000F8B242F6FE020101C0F60002515C02EB12
:1018A00000168DF81B100DF11B07204678214022F1
:1018B0000123CDE90079CDF80880FEF751FE70785C
:1018C000317996F802A096F803B003918DF81B00C9
:1018D0002046782140220123CDE90079CDF8088007
:1018E000FEF73EFE20467821402201238DF81BA002
:1018F000CDE90079CDF80880FEF732FE2046782148
:10190000402201238DF81BB0CDE90079CDF8088085
:10191000FEF726FE039878218DF81B002046402212
:101920000123CDE90079CDF80880FEF719FE707922
:1019300078218DF81B00204640220123CDE9007953
:10194000CDF80880FEF70CFEB07978218DF81B00E9
:10195000204640220123CDE90079CDF80880FEF72A
:10196000FFFDF07978218DF81B00204640220123ED
:10197000CDE90079CDF80880FEF7F2FDA5F14F0022
:101980008DF81C0007A8CDE9000920467821002227
:101990000123CDF80880FEF7E3FD059878218DF846
:1019A0001D000DF11D00CDE9000920460022012394
:1019B000CDF80880FEF7D4FD049878218DF81E003C
:1019C0000DF11E00CDE90009204600220123CDF8CB
:1019D0000880FEF7C5FD307A0DF11F058DF81F0058
:1019E0002046782140220123CDE90059CDF8088016
:1019F000FEF7B6FD707A78218DF81F002046402250
:101A00000123CDE90059CDF80880FEF7A9FDB07A91
:101A100078218DF81F00204640220123CDE900598E
:101A2000CDF80880FEF79CFDF07A78218DF81F0034
:101A3000204640220123CDE90059CDF80880FEF769
:101A40008FFD307B78218DF81F0020464022012336
:101A5000CDE90059CDF80880FEF782FD707B782132
:101A60008DF81F00204640220123CDE90059CDF812
:101A70000880FEF775FDB07B78218DF81F002046A9
:101A800040220123CDE90059CDF80880FEF768FD1A
:101A9000F07BCDE900598DF81F00204689E000BF9A
:101AA00040F2380B8DF820004FF0010A08A8C2F26E
:101AB000000B4FF48078CDE9000A584678210022C7
:101AC0000123CDF80880FEF74BFD300910308DF86A
:101AD00021000DF12100CDE9000A584678210022AD
:101AE0000123CDF80880FEF73BFD06F00F008DF8CE
:101AF00022000DF12200CDE9000A5846782100228B
:101B00000123CDF80880FEF72BFDF8B242F2D66132
:101B100000EB4000C0F6000111F8102001EB400579
:101B20008DF823200DF12306584678214022012309
:101B3000CDE9006ACDF80880FEF712FD6878AF782D
:101B4000EC7895F804908DF82300584678214022CF
:101B50000123CDE9006ACDF80880FEF701FD584663
:101B60007821402201238DF82370CDE9006ACDF859
:101B70000880FEF7F5FC58467821402201238DF8B5
:101B80002340CDE9006ACDF80880FEF7E9FC58460D
:101B90007821402201238DF82390CDE9006ACDF809
:101BA0000880FEF7DDFC6879CDE9006A8DF8230036
:101BB0005846782140220123CDF80880FEF7D0FC5A
:101BC00009B0BDE8F08F00002DE9F04F87B0064660
:101BD000A1F1500040F238058DF81400012705A846
:101BE000C2F20005144604914FF4807ACDE9000753
:101BF0002846782100220123CDF808A0FEF7B0FC8A
:101C0000300900F110080DF11500CDE90007284654
:101C10007821002201238DF81580CDF808A0FEF769
:101C20009FFC0DF1160006F00F0BCDE900072846CA
:101C30007821002201238DF816B0CDF808A0FEF718
:101C40008FFC42F6DE61C4EB0420C0F6000101EB1C
:101C500040064FF0FF340DF1170900BF30194078EE
:101C600078218DF81700284640220123CDE90097FE
:101C7000CDF808A0FEF774FC01341F2CEED10498B7
:101C800040F238044F388DF818004FF0010A06A8CA
:101C9000C2F200044FF48079CDE9000A2046782191
:101CA00000220123CDF80890FEF75AFC0DF119002F
:101CB000CDE9000A20467821002201238DF8198001
:101CC000CDF80890FEF74CFC0DF11A00CDE9000AA2
:101CD00020467821002201238DF81AB0CDF8089013
:101CE000FEF73EFCFE250DF11B0700BF7019407882
:101CF00078218DF81B00204640220123CDE9007A8F
:101D0000CDF80890FEF72CFC0135B5F58F7FEDD1AD
:101D100007B0BDE8F08F000070470000704700007A
:101D2000FEF73EBD70470000FEE70000F0B583B04F
:101D300040F2380440F20C07C2F200044FF4807500
:101D40000126C2F200072046782100220123CDE9B6
:101D500000760295FEF704FC781CCDE900062046CB
:101D60007821002201230295FEF7FAFBB81CCDE989
:101D7000000620467821002201230295FEF7F0FBA1
:101D8000F81CCDE9000620467821002201230295A7
:101D9000FEF7E6FB381DCDE900062046782100223B
:101DA00001230295FEF7DCFB781DCDE900062046F5
:101DB0007821002201230295FEF7D2FBB81DCDE960
:101DC000000620467821002201230295FEF7C8FB79
:101DD000F81DCDE900062046782100220123029556
:101DE000FEF7BEFB07F10800CDE90006204678218A
:101DF000002201230295FEF7B3FB07F10900CDE9AC
:101E0000000620467821002201230295FEF7A8FB58
:101E100007F10A00CDE900062046782100220123BF
:101E20000295FEF79DFB07F10B00CDE90006204669
:101E30007821002201230295FEF792FB07F10C00A6
:101E4000CDE9000620467821002201230295FEF705
:101E500087FB07F10D00CDE900062046782100221E
:101E600001230295FEF77CFB07F10E00CDE9000689
:101E700020467821002201230295FEF771FB07F12D
:101E80000F00CDE9000620467821002201230295AB
:101E9000FEF766FB07F11000CDE900062046782129
:101EA000002201230295FEF75BFB07F11100CDE94B
:101EB000000620467821002201230295FEF750FB00
:101EC00007F11200CDE90006204678210022012307
:101ED0000295FEF745FB07F11300CDE90006204609
:101EE0007821002201230295FEF73AFB07F1140046
:101EF000CDE9000620467821002201230295FEF755
:101F00002FFB07F11500CDE90006204678210022BD
:101F100001230295FEF724FB07F11600CDE9000628
:101F200020467821002201230295FEF719FB07F1D4
:101F30001700CDE9000620467821002201230295F2
:101F4000FEF70EFB07F11800CDE9000620467821C8
:101F5000002201230295FEF703FB07F11900CDE9EA
:101F6000000620467821002201230295FEF7F8FAA8
:101F700007F11A00CDE9000620467821002201234E
:101F80000295FEF7EDFA03B0F0BD000080B582B017
:101F9000019040F28C00C2F2000001A901224FF62C
:101FA000FF73FFF745F8019802B080BD90B0FEF7CF
:101FB00005FC00240120CDE90B44CDE9094406903D
:101FC0000A904FF4E0104FF4803102250F9006A8DC
:101FD000CDE90714CDE90D51FEF78EFD20B1EFF3E9
:101FE000108072B6FEE700BF0F20CDE901054FF467
:101FF0008060CDE9040401A802210394FEF774FC7B
:1020000020B1EFF3108072B6FEE700BFFFF7CEFA03
:10201000FFF754FBFFF774FBFFF7EAFBFFF792FBB8
:102020001820002100220027FFF7CEFD28200021E4
:102030000122FFF7C9FD382000210222FFF7C4FD6D
:10204000482000210322FFF7BFFD58200021042271
:10205000FFF7BAFD002002210522FFF7B5FD102091
:1020600002210622FFF7B0FD202002213A22102390
:10207000FFF7C6FB002004210722FFF7A5FD102073
:1020800004210822FFF7A0FD202004213A2210237A
:10209000FFF7B6FB002006210922FFF795FD10206F
:1020A00006210A22FFF790FD202006213A22102364
:1020B000FFF7A6FBFFF7A8F840F2300140F2340624
:1020C00040F60045C2F20001C2F2000655A442F2F9
:1020D000107AC4F20105086009E000BF06A800F00C
:1020E000DBFA4FF0230B4FF47A70FEF74DF8FFF751
:1020F00077F801463060204600F0D2F930680022BF
:10210000504528464FF0080188BF0122FEF760F9CC
:10211000002F2DD0B8F12A0F37D100F085F82338E1
:1021200016284FF02A0830D8DFE800F00C2F2F2FA8
:102130002F2F2F2F2F2F2F2F2F1A343C444C545C2E
:10214000646C740023208DF8260044F2D8405FFAB6
:1021500089F1C0F6000000F0A3F94FF02A08BDE7AE
:1021600030214FF02A084FF030098DF8191006E0A1
:1021700000F05AF801468DF818000127804644F215
:10218000D840C0F6000000F08BF9BBF1230F3FF4FC
:10219000A5AFA8E731218DF819104FF02A084FF0AC
:1021A0003109ECE732218DF819104FF02A084FF071
:1021B0003209E4E733218DF819104FF02A084FF067
:1021C0003309DCE734218DF819104FF02A084FF05D
:1021D0003409D4E735218DF819104FF02A084FF053
:1021E0003509CCE736218DF819104FF02A084FF049
:1021F0003609C4E737218DF819104FF02A084FF03F
:102200003709BCE738218DF819104FF02A084FF034
:102210003809B4E739218DF819104FF02A084FF02A
:102220003909ACE725640A00B0B540F60004C4F2F1
:102230000104204610210022FEF7CAF82046202182
:102240000122FEF7C5F8204640210122FEF7C0F822
:10225000204680210122FEF7BBF820460821FEF728
:10226000B1F840F2D005C2F2000538B92046082185
:10227000FEF7A8F80028F9D0312028702046042164
:10228000FEF7A0F840B900BF20460421FEF79AF8F7
:102290000028F9D03220287020460221FEF792F85B
:1022A00040B900BF20460221FEF78CF80028F9D083
:1022B0003320287020460121FEF784F840B900BF82
:1022C00020460121FEF77EF80028F9D04120287031
:1022D000204610210122FEF77BF820462021002213
:1022E000FEF776F8204640210122FEF771F82046DD
:1022F00080210122FEF76CF820460821FEF762F8E3
:1023000040B900BF20460821FEF75CF80028F9D04C
:102310003420287020460421FEF754F840B900BF4D
:1023200020460421FEF74EF80028F9D03520287009
:1023300020460221FEF746F840B900BF20460221A0
:10234000FEF740F80028F9D03620287020460121F9
:10235000FEF738F840B900BF20460121FEF732F8F9
:102360000028F9D042202870204610210122FEF7D3
:102370002FF8204620210122FEF72AF8204640218E
:102380000022FEF725F8204680210122FEF720F8E2
:1023900020460821FEF716F840B900BF2046082164
:1023A000FEF710F80028F9D03720287020460421C5
:1023B000FEF708F840B900BF20460421FEF702F8F6
:1023C0000028F9D03820287020460221FDF7FAFFB6
:1023D00040B900BF20460221FDF7F4FF0028F9D0E4
:1023E0003920287020460121FDF7ECFF40B900BFDD
:1023F00020460121FDF7E6FF0028F9D04320287090
:10240000204610210122FDF7E3FF20462021012272
:10241000FDF7DEFF204640210122FDF7D9FF2046CF
:1024200080210022FDF7D4FF20460821FDF7CAFFD6
:1024300040B900BF20460821FDF7C4FF0028F9D0AD
:102440002A20287020460421FDF7BCFF40B900BFB8
:1024500020460421FDF7B6FF0028F9D0302028706F
:1024600020460221FDF7AEFF40B900BF2046022101
:10247000FDF7A8FF0028F9D023202870204601216D
:10248000FDF7A0FF10B12878B0BD00BF20460121A4
:10249000FDF798FF0028F9D044202870B0BD000057
:1024A0000FB4054B10B503A9044A029800F018F8C0
:1024B00010BC5DF814FB00008D1F00080000002018
:1024C00002E008C8121F08C1002AFAD170477047FD
:1024D000002001E001C1121F002AFBD1704700005B
:1024E0002DE9FF4F8BB09A460F460546002606E0C1
:1024F00025280BD052460D9990476D1C761C2878E4
:102500000028F5D10FB03046BDE8F08F0024A0467A
:102510000122604900E0044315F8013F203B02FA24
:1025200003F00842F7D128782E2817D115F8010FAB
:1025300044F004042A280ED06FF02F022878A0F16E
:10254000300109290AD808EB880102EB410100EBB0
:1025500001086D1CF2E757F8048B6D1C2878692878
:102560003ED006DC0028CDD063280BD0642804D1EF
:1025700036E0732810D075284BD052460D999047FD
:10258000761C85E017F8040B8DF8000000208DF80C
:102590000100E946012003E057F8049B4FF0FF30AB
:1025A00061074FF0000401D40AE0641C44450DDAD1
:1025B0008442FADB19F804100029F6D106E0641C05
:1025C0008442FCDB19F804100029F8D1264404E009
:1025D00019F8010B52460D999047641EF8D257E046
:1025E00001CF4FF00A0B002802DA40422D2102E011
:1025F000210504D52B218DF82410012103E0E107EA
:1026000005D02021F7E70DF1200908910CE0002109
:10261000F9E701CF4FF00A0BF9E75946FDF782FDC4
:1026200001F1300209F8012D0028F6D1ADEB0900C7
:1026300000F1200B600701D44FF00108D84502DDFE
:10264000A8EB0B0000E000208046002406E009A86B
:102650005246005D0D999047641C761C0898844290
:10266000F5DB04E0302052460D999047761CB8F116
:102670000001A8F10108F5DC05E019F8010B52464C
:102680000D999047761CBBF10001ABF1010BF4DC16
:102690006D1C34E70928010010B5044601E0FFF77E
:1026A00075FC14F8010B04490028F8D1BDE810406E
:1026B0000A20FFF76BBC00000000002001020000B0
:1026C00000000000000001020304060708090000E2
:1026D0000000010203040000000000000000002FC1
:1026E000000000000700070000147F147F1400247E
:1026F0002A7F2A12006264081323003649552250AB
:1027000000000503000000001C22410000004122DF
:102710001C000014083E08140008083E08080000C9
:1027200000A06000000808080808000060600000C1
:10273000002010080402003E5149453E0000427F3F
:102740004000004261514946002141454B3100188B
:1027500014127F10002745454539003C4A4949304D
:102760000001710905030036494949360006494907
:10277000291E000036360000000056360000000812
:1027800014224100001414141414000041221408EF
:1027900000020151090600324959513E007C1211D4
:1027A000127C007F49494936003E41414122007F69
:1027B0004141221C007F49494941007F0909090123
:1027C000003E4149497A007F0808087F0000417FA8
:1027D0004100002040413F01007F08142241007F5A
:1027E00040404040007F020C027F007F0408107FC1
:1027F000003E4141413E007F09090906003E41512A
:10280000215E007F091929460046494949310001E6
:10281000017F0101003F4040403F001F2040201F3A
:10282000003F4038403F00631408146300070870FD
:10283000080700615149454300007F4141000055B0
:102840002A552A55000041417F000004020102047C
:102850000040404040400000010204000020545469
:102860005478007F484444380038444444200038B9
:102870004444487F00385454541800087E0901022B
:102880000018A4A4A47C007F080404780000447D00
:102890004000004080847D00007F1028440000003C
:1028A000417F4000007C04180478007C0804047810
:1028B00000384444443800FC2424241800182424FC
:1028C00018FC007C080404080048545454200004F8
:1028D0003F444020003C4040207C001C2040201C05
:1028E000003C4030403C004428102844001CA0A07C
:1028F000A07C004464544C441414141414140000B8
:1029000000000000000000000000000000000000C7
:1029100000F800000000000000333000000000104C
:102920000C06100C0600000000000000000040C073
:102930007840C0784000043F04043F040400007065
:1029400088FC08300000001820FF211E0000F0085D
:10295000F000E018000000211C031E211E0000F002
:102960000888700000001E2123241927211010164A
:102970000E00000000000000000000000000000049
:1029800000E01804020000000007182040000002C8
:102990000418E0000000004020180700000040403C
:1029A00080F0804040000202010F0102020000009E
:1029B00000F0000000000101011F01010100000002
:1029C00000000000000080B0700000000000000067
:1029D00000000000000000010101010101010000F0
:1029E0000000000000000030300000000000000087
:1029F000000080601804006018060100000000E07C
:102A000010080810E000000F102020100F00001028
:102A100010F8000000000020203F2020000000707F
:102A20000808088870000030282422213000003077
:102A30000888884830000018202020110E0000006F
:102A4000C02010F8000000070424243F240000F8F0
:102A50000888880808000019212020110E0000E0D5
:102A6000108888180000000F112020110E00003877
:102A70000808C83808000000003F0000000000708F
:102A8000880808887000001C222121221C0000E018
:102A900010080810E0000000312222110F00000091
:102AA00000C0C00000000000003030000000000046
:102AB00000800000000000008060000000000000B6
:102AC000804020100800000102040810200040404F
:102AD0004040404040000404040404040400000892
:102AE0001020408000000020100804020100007047
:102AF00048080808F0000000003036010000C0302F
:102B0000C828E810E0000718272423140B00000051
:102B1000C038E0000000203C23020227382008F8DB
:102B2000888888700000203F202020110E00C030CF
:102B3000080808083800071820202010080008F8A6
:102B400008080810E000203F202020100F0008F89F
:102B50008888E8081000203F20202320180008F86B
:102B60008888E8081000203F200003000000C030E3
:102B700008080838000007182020221E020008F864
:102B800008000008F808203F210101213F2000082B
:102B900008F8080800000020203F20200000000066
:102BA0000808F8080800C08080807F00000008F84E
:102BB00088C028180800203F20012638200008F887
:102BC000080000000000203F20202020300008F8EE
:102BD000F800F8F80800203F003F003F200008F808
:102BE00030C00008F808203F200007183F00E01020
:102BF00008080810E0000F10202020100F0008F82F
:102C000008080808F000203F210101010000E01041
:102C100008080810E0000F18242438504F0008F866
:102C2000888888887000203F2000030C30200070C6
:102C30008808080838000038202121221C001808C4
:102C400008F8080818000000203F2000000008F8DD
:102C500008000008F808001F202020201F00087826
:102C6000880000C83808000007380E010000F80886
:102C700000F80008F800033C0700073C03000818B0
:102C800068808068180820302C03032C3020083816
:102C9000C800C83808000000203F200000001008CD
:102CA0000808C83808002038262120201800000015
:102CB00000FE020202000000007F40404000000CC5
:102CC00030C000000000000000010638C000000213
:102CD0000202FE000000004040407F0000000000B3
:102CE00004020202040000000000000000000000D6
:102CF00000000000000080808080808080800002D2
:102D000002040000000000000000000000000000BD
:102D10008080808000000019242222223F2008F8B1
:102D2000008080000000003F112020110E000000F4
:102D3000008080800000000E112020201100000083
:102D400000808088F800000E112020103F20000035
:102D5000808080800000001F222222221300008039
:102D600080F0888888180020203F20200000000084
:102D7000808080808000006B94949493600008F8B9
:102D8000008080800000203F210000203F20008044
:102D90009898000000000020203F20200000000044
:102DA00000809898000000C08080807F000008F8B4
:102DB000000080808000203F24022D302000000889
:102DC00008F8000000000020203F20200000808044
:102DD000808080808000203F20003F20003F808056
:102DE000008080800000203F210000203F20000064
:102DF000808080800000001F202020201F00808015
:102E000000808000000080FFA12020110E00000043
:102E1000008080808000000E112020A0FF80808034
:102E200080008080800020203F21200001000000E1
:102E300080808080800000332424242419000080B6
:102E400080E0808000000000001F202000008080C3
:102E5000000000808000001F202020103F20808084
:102E600080000080808000010E3008060100808014
:102E70000080008080800F300C030C300F00008039
:102E80008000808080000020312E0E312000808064
:102E900080000080808080818E7018060100008094
:102EA0008080808080000021302C222130000000B2
:102EB0000000807C020200000000003F4040000251
:102EC000027C800000000040403F00000000000045
:102ED0000000FF00000000000000FF000000109450
:102EE00053321E325210007E4242427E00000000E9
:102EF00000000000000000000000000000000000D2
:102F000000000000000000000000000000000000C1
:102F100000000000000000000000000000000000B1
:102F200000000000000000000000000000000000A1
:102F30000000000000000000000000000000000091
:102F40000000000000000000000000000000000081
:102F50000000000000000000000000000000000071
:102F60000000000000000000000000000000000061
:102F70000000000000000000000000000000000051
:102F80000000000000000000000000000000000041
:102F90000000000000000000000000000000000031
:102FA0000000000000000000000000000000000021
:102FB0000000000000000000000000000000000011
:102FC0000000000000000000000000000000000001
:102FD00000000000000000000000000000000000F1
:102FE000FF49494949494949FF00000000000000E4
:102FF00000000000000000000000000000000000D1
:1030000000000000000000000000000000000000C0
:1030100000000000000000000000000000000000B0
:1030200000000000000000000000000000000000A0
:103030000000000000000000000000000000000090
:103040000000000000000000000000000000000080
:103050000000000000000000000000000000000070
:103060000000000000000000000000000000000060
:103070000000000000000000000000000000000050
:103080000000000000000000000000000000000040
:103090000000000000000000000000000000000030
:1030A0000000000000000000000000000000000020
:1030B0000000000000000000000000000000000010
:1030C0000000000000000000000000000000000000
:1030D00000000000000000000000000008CC4A4989
:1030E000484ACC18007F88888482E00000000000F5
:1030F00000000000000000000000000000000000D0
:1031000000000000000000000000000000000000BF
:1031100000000000000000000000000000000000AF
:10312000000000000000000000000000000000009F
:10313000000000000000000000000000000000008F
:10314000000000000000000000000000000000007F
:10315000000000000000000000000000000000006F
:10316000000000000000000000000000000000005F
:10317000000000000000000000000000000000004F
:10318000000000000000000000000000000000003F
:10319000000000000000000000000000000000002F
:1031A000000000000000000000000000000000001F
:1031B000000000000000000000000000000000000F
:1031C00000000000000000000000000000000000FF
:1031D000000000000000000000000000FF1212527A
:1031E000927F00007E88888482E00000000000005A
:1031F00000000000000000000000000000000000CF
:1032000000000000000000000000000000000000BE
:1032100000000000000000000000000000000000AE
:10322000000000000000000000000000000000009E
:10323000000000000000000000000000000000008E
:10324000000000000000000000000000000000007E
:10325000000000000000000000000000000000006E
:10326000000000000000000000000000000000005E
:10327000000000000000000000000000000000004E
:10328000000000000000000000000000000000003E
:10329000000000000000000000000000000000002E
:1032A000000000000000000000000000000000001E
:1032B000000000000000000000000000000000000E
:1032C00000000000000000000000000000000000FE
:1032D000000000000000000000000000F88888885E
:1032E00088FF88888888F80000000000000000003F
:1032F00000000000000000000000000000000000CE
:1033000000000000000000000000000000000000BD
:1033100000000000000000000000000000000000AD
:10332000000000000000000000000000000000009D
:10333000000000000000000000000000000000008D
:10334000000000000000000000000000000000007D
:10335000000000000000000000000000000000006D
:10336000000000000000000000000000000000005D
:10337000000000000000000000000000000000004D
:10338000000000000000000000000000000000003D
:10339000000000000000000000000000000000002D
:1033A000000000000000000000000000000000001D
:1033B000000000000000000000000000000000000D
:1033C00000000000000000000000000000000000FD
:1033D00000000000000000000000001F08080808AE
:1033E0007F888888889F80F000000000000000002F
:1033F00000000000000000000000000000000000CD
:1034000000000000000000000000000000000000BC
:1034100000000000000000000000000000000000AC
:10342000000000000000000000000000000000009C
:10343000000000000000000000000000000000008C
:10344000000000000000000000000000000000007C
:10345000000000000000000000000000000000006C
:10346000000000000000000000000000000000005C
:10347000000000000000000000000000000000004C
:10348000000000000000000000000000000000003C
:10349000000000000000000000000000000000002C
:1034A000000000000000000000000000000000001C
:1034B000000000000000000000000000000000000C
:1034C00000000000000000000000000000000000FC
:1034D000000000000000000080828282828282E27E
:1034E000A2928A8682808000000000000000000016
:1034F00000000000000000000000000000000000CC
:1035000000000000000000000000000000000000BB
:1035100000000000000000000000000000000000AB
:10352000000000000000000000000000000000009B
:10353000000000000000000000000000000000008B
:10354000000000000000000000000000000000007B
:10355000000000000000000000000000000000006B
:10356000000000000000000000000000000000005B
:10357000000000000000000000000000000000004B
:10358000000000000000000000000000000000003B
:10359000000000000000000000000000000000002B
:1035A000000000000000000000000000000000001B
:1035B000000000000000000000000000000000000B
:1035C00000000000000000000000000000000000FB
:1035D00000000000000000000000000040807F00AC
:1035E00000000000000000000000000000000000DB
:1035F00000000000000000000000000000000000CB
:1036000000000000000000000000000000000000BA
:1036100000000000000000000000000000000000AA
:10362000000000000000000000000000000000009A
:10363000000000000000000000000000000000008A
:10364000000000000000000000000000000000007A
:10365000000000000000000000000000000000006A
:10366000000000000000000000000000000000005A
:10367000000000000000000000000000000000004A
:10368000000000000000000000000000000000003A
:10369000000000000000000000000000000000002A
:1036A000000000000000000000000000000000001A
:1036B000000000000000000000000000000000000A
:1036C00000000000000000000000000000000000FA
:1036D0000000000000002424A4FE23220012620245
:1036E000FE02423200000000000000000000000066
:1036F00000000000000000000000000000000000CA
:1037000000000000000000000000000000000000B9
:1037100000000000000000000000000000000000A9
:103720000000000000000000000000000000000099
:103730000000000000000000000000000000000089
:103740000000000000000000000000000000000079
:103750000000000000000000000000000000000069
:103760000000000000000000000000000000000059
:103770000000000000000000000000000000000049
:103780000000000000000000000000000000000039
:103790000000000000000000000000000000000029
:1037A0000000000000000000000000000000000019
:1037B0000000000000000000000000000000000009
:1037C00000000000000000000000000000000000F9
:1037D0000000000000080601FF010601010101FFD1
:1037E00001010101000000000000000000000000D5
:1037F00000000000000000000000000000000000C9
:1038000000000000000000000000000000000000B8
:1038100000000000000000000000000000000000A8
:103820000000000000000000000000000000000098
:103830000000000000000000000000000000000088
:103840000000000000000000000000000000000078
:103850000000000000000000000000000000000068
:103860000000000000000000000000000000000058
:103870000000000000000000000000000000000048
:103880000000000000000000000000000000000038
:103890000000000000000000000000000000000028
:1038A0000000000000000000000000000000000018
:1038B0000000000000000000000000000000000008
:1038C00000000000000000000000000000000000F8
:1038D000000000002030AC633000FC2425262424A6
:1038E000243C000000000000000000000000000078
:1038F00000000000000000000000000000000000C8
:1039000000000000000000000000000000000000B7
:1039100000000000000000000000000000000000A7
:103920000000000000000000000000000000000097
:103930000000000000000000000000000000000087
:103940000000000000000000000000000000000077
:103950000000000000000000000000000000000067
:103960000000000000000000000000000000000057
:103970000000000000000000000000000000000047
:103980000000000000000000000000000000000037
:103990000000000000000000000000000000000027
:1039A0000000000000000000000000000000000017
:1039B0000000000000000000000000000000000007
:1039C00000000000000000000000000000000000F7
:1039D00000000022672212523807FF097F093F8941
:1039E000FF000000000000000000000000000000D8
:1039F00000000000000000000000000000000000C7
:103A000000000000000000000000000000000000B6
:103A100000000000000000000000000000000000A6
:103A20000000000000000000000000000000000096
:103A30000000000000000000000000000000000086
:103A40000000000000000000000000000000000076
:103A50000000000000000000000000000000000066
:103A60000000000000000000000000000000000056
:103A70000000000000000000000000000000000046
:103A80000000000000000000000000000000000036
:103A90000000000000000000000000000000000026
:103AA0000000000000000000000000000000000016
:103AB0000000000000000000000000000000000006
:103AC00000000000000000000000000000000000F6
:103AD0000000808080BEA2A2A2A2A2A2A2BE80807C
:103AE0008000000000000000000000000000000056
:103AF00000000000000000000000000000000000C6
:103B000000000000000000000000000000000000B5
:103B100000000000000000000000000000000000A5
:103B20000000000000000000000000000000000095
:103B30000000000000000000000000000000000085
:103B40000000000000000000000000000000000075
:103B50000000000000000000000000000000000065
:103B60000000000000000000000000000000000055
:103B70000000000000000000000000000000000045
:103B80000000000000000000000000000000000035
:103B90000000000000000000000000000000000025
:103BA0000000000000000000000000000000000015
:103BB0000000000000000000000000000000000005
:103BC00000000000000000000000000000000000F5
:103BD0000000000006050404044484443C00000086
:103BE00000000000000000000000000000000000D5
:103BF00000000000000000000000000000000000C5
:103C000000000000000000000000000000000000B4
:103C100000000000000000000000000000000000A4
:103C20000000000000000000000000000000000094
:103C30000000000000000000000000000000000084
:103C40000000000000000000000000000000000074
:103C50000000000000000000000000000000000064
:103C60000000000000000000000000000000000054
:103C70000000000000000000000000000000000044
:103C80000000000000000000000000000000000034
:103C90000000000000000000000000000000000024
:103CA0000000000000000000000000000000000014
:103CB0000000000000000000000000000000000004
:103CC00000000000000000000000000000000000F4
:103CD0000000F8494A4C48F8484C4A49F8000000AE
:103CE00000000000000000000000000000000000D4
:103CF00000000000000000000000000000000000C4
:103D000000000000000000000000000000000000B3
:103D100000000000000000000000000000000000A3
:103D20000000000000000000000000000000000093
:103D30000000000000000000000000000000000083
:103D40000000000000000000000000000000000073
:103D50000000000000000000000000000000000063
:103D60000000000000000000000000000000000053
:103D70000000000000000000000000000000000043
:103D80000000000000000000000000000000000033
:103D90000000000000000000000000000000000023
:103DA0000000000000000000000000000000000013
:103DB0000000000000000000000000000000000003
:103DC00000000000000000000000000000000010E3
:103DD000101312121212FF121212121310100000FE
:103DE00000000000000000000000000000000000D3
:103DF00000000000000000000000000000000000C3
:103E000000000000000000000000000000000000B2
:103E100000000000000000000000000000000000A2
:103E20000000000000000000000000000000000092
:103E30000000000000000000000000000000000082
:103E40000000000000000000000000000000000072
:103E50000000000000000000000000000000000062
:103E60000000000000000000000000000000000052
:103E70000000000000000000000000000000000042
:103E80000000000000000000000000000000000032
:103E90000000000000000000000000000000000022
:103EA0000000000000000000000000000000000012
:103EB0000000000000000000000000000000000002
:103EC0000000000000000000000000000000008072
:103ED00060F8074020900C030C9020404000000048
:103EE00000000000000000000000000000000000D2
:103EF00000000000000000000000000000000000C2
:103F000000000000000000000000000000000000B1
:103F100000000000000000000000000000000000A1
:103F20000000000000000000000000000000000091
:103F30000000000000000000000000000000000081
:103F40000000000000000000000000000000000071
:103F50000000000000000000000000000000000061
:103F60000000000000000000000000000000000051
:103F70000000000000000000000000000000000041
:103F80000000000000000000000000000000000031
:103F90000000000000000000000000000000000021
:103FA0000000000000000000000000000000000011
:103FB0000000000000000000000000000000000001
:103FC00000000000000000000000000000010000F0
:103FD000FF0080601F000000FF00000000000000E4
:103FE00000000000000000000000000000000000D1
:103FF00000000000000000000000000000000000C1
:1040000000000000000000000000000000000000B0
:1040100000000000000000000000000000000000A0
:104020000000000000000000000000000000000090
:104030000000000000000000000000000000000080
:104040000000000000000000000000000000000070
:104050000000000000000000000000000000000060
:104060000000000000000000000000000000000050
:104070000000000000000000000000000000000040
:104080000000000000000000000000000000000030
:104090000000000000000000000000000000000020
:1040A0000000000000000000000000000000000010
:1040B0000000000000000000000000000000000000
:1040C00000000000000000000000000000083000B8
:1040D000FF20202020FF2020222C200000000000B4
:1040E00000000000000000000000000000000000D0
:1040F00000000000000000000000000000000000C0
:1041000000000000000000000000000000000000AF
:10411000000000000000000000000000000000009F
:10412000000000000000000000000000000000008F
:10413000000000000000000000000000000000007F
:10414000000000000000000000000000000000006F
:10415000000000000000000000000000000000005F
:10416000000000000000000000000000000000004F
:10417000000000000000000000000000000000003F
:10418000000000000000000000000000000000002F
:10419000000000000000000000000000000000001F
:1041A000000000000000000000000000000000000F
:1041B00000000000000000000000000000000000FF
:1041C000000000000000000000000004040201FFE5
:1041D0008040300E010618204080000000000000E2
:1041E00000000000000000000000000000000000CF
:1041F00000000000000000000000000000000000BF
:1042000000000000000000000000000000000000AE
:10421000000000000000000000000000000000009E
:10422000000000000000000000000000000000008E
:10423000000000000000000000000000000000007E
:10424000000000000000000000000000000000006E
:10425000000000000000000000000000000000005E
:10426000000000000000000000000000000000004E
:10427000000000000000000000000000000000003E
:10428000000000000000000000000000000000002E
:10429000000000000000000000000000000000001E
:1042A000000000000000000000000000000000000E
:1042B00000000000000000000000000000000000FE
:1042C000000000000000000000000004848444247A
:1042D000548F142444848404000000000000000073
:1042E00000000000000000000000000000000000CE
:1042F00000000000000000000000000000000000BE
:1043000000000000000000000000000000000000AD
:10431000000000000000000000000000000000009D
:10432000000000000000000000000000000000008D
:10433000000000000000000000000000000000007D
:10434000000000000000000000000000000000006D
:10435000000000000000000000000000000000005D
:10436000000000000000000000000000000000004D
:10437000000000000000000000000000000000003D
:10438000000000000000000000000000000000002D
:10439000000000000000000000000000000000001D
:1043A000000000000000000000000000000000000D
:1043B00000000000000000000000000000000000FD
:1043C000000000000000000000413900003C4040B7
:1043D000424C404070040931000000000000000021
:1043E00000000000000000000000000000000000CD
:1043F00000000000000000000000000000000000BD
:1044000000000000000000000000000000000000AC
:10441000000000000000000000000000000000009C
:10442000000000000000000000000000000000008C
:10443000000000000000000000000000000000007C
:10444000000000000000000000000000000000006C
:10445000000000000000000000000000000000005C
:10446000000000000000000000000000000000004C
:10447000000000000000000000000000000000003C
:10448000000000000000000000000000000000002C
:10449000000000000000000000000000000000001C
:1044A000000000000000000000000000000000000C
:1044B00000000000000000000000000000000000FC
:1044C00000000000000000000203040506070809C0
:1044D0000A0B0C0D0E0F101025630A000045000892
:1044E0000000002030000000C02400083045000813
:1044F00030000020A8040000D024000800000000C4
:10450000000000000100000010000000AE0010409C
:10451000B081FFA1A6A83FC8D300D580D805D9F1A6
:10452000DA12D8308D14AF000024F400000000002F
:04000005080000ED02
:00000001FF
